:020000001F28B7
:100008007E14803120003808031D0C2801300D288B
:100018000030F0007008B8000930F1001E30F00020
:10002800E430890B1528F00B1528F10B1528003240
:100038008B107E10090020281122B9001222BA0064
:100048001322BB001422BC00B001B101B201B301FC
:10005800B401B501B601B701B8017E102000C92866
:10006800A8002808031DA31F49282009AA00210960
:10007800AB002209AC002309AD00AA0A0319AB0A98
:100088000319AC0A0319AD0A51282308AD00220848
:10009800AC002108AB002008AA0023082204210490
:1000A8002004031D60280030A3000030A2000030A7
:1000B800A1000030A00008009630A4002408A90080
:1000C800FE302D05031987280130A4002408A9074C
:1000D8000130AD36AC0CAB0CAA0C890B6D2864282A
:1000E8000130A4002408A9070130AA070030AB3D5D
:1000F8000030AC3D0030AD3D0130AD36AC0CAB0C42
:10010800AA0C890B8128FF302D050319992874281A
:1001180002302902031C9B280130A9020130AA35AC
:10012800AB0DAC0DAD0D890B9328AC1F8C2829188D
:10013800A528FF30AA05FF30AB057F30AC05FF309E
:10014800AD050310A90C2908A400A501A601A70163
:100158001830A435A50DA60DA70D890BAD282408C8
:10016800AA042508AB042608AC042708AD0428080F
:10017800031DA31FC028AD172D08A3002C08A2003B
:100188002B08A1002A08A0000800FC21152208223B
:10019800E22120003803031D09290030C221730819
:1001A8002000B7007208B6000130C2217308200091
:1001B800B5007208B4003508F5003408F400FF30C3
:1001C800F2000330F3001F217208A0007308A10099
:1001D800890D893B8909A200A30001303420230836
:1001E800BC002208BB002108BA002008B900370863
:1001F800B1003608B0000030F200F3009921200069
:100208003108F3003008F20010290030F200F30042
:1002180099210030F200F300702102302000AF0075
:100228000430AE00BA30890B1729AE0B1729AF0B73
:1002380017290000CD28F801F31F2929F209F3092D
:10024800F20A0319F30AF801F80AF51F3429F40928
:10025800F509F40A0319F50A0130F6007608F806DC
:10026800F901FA017208730403196329F701F70AFF
:10027800F31B48290130F235F30D890B3F29013072
:10028800F6007608F7073C290130F935FA0D890B95
:10029800492973087502031D532972087402031C47
:1002A8005A297208F4027308F53B79140130F336C1
:1002B800F20C890B5B290130F702031D48297808E5
:1002C80003196B29F909FA09F90A0319FA0A7A08CC
:1002D800F3007908F20008007308803AF4008030CF
:1002E8007402031D79290A307202031880293B0021
:1002F800AB1322000C1292297308803AF400833061
:100308007402031D8929F6307202031C90293B00F0
:10031800AB1322000C1692293B00AB1773083B0065
:10032800A4007208A300AF1708007308803AF4000D
:1003380080307402031DA2290A3072020318A92909
:100348003B009B1322008C12BB297308803AF400EF
:1003580083307402031DB229F6307202031CB929D6
:100368003B009B1322008C16BB293B009B1773088C
:100378003B009400720893009F170800F700770865
:10038800F400F40DF40D21001D0874068339740679
:100398009D000B30F4006230890BD029F40BD02972
:1003A800003221009D149D18D7291C08F6001B084F
:1003B800F5007608F3007508F2000800C0303B002D
:1003C8009B00C030AB0030309E003030AE000330B0
:1003D8009600FE3095000330A600FE30A50091017E
:1003E8009201A101A20193019401A301A4010800B3
:1003F800F0302100990007308C00033023008C0076
:10040800033022009D000800E33021009E000130E7
:100418009D008330220097000800003400348034A7
:080428003F34D0308B000800C6
:020000040001F9
:08000000FF3FFF3FFF3FFF3F00
:04000E008439FF1F13
:00000001FF
