:020000001D28B9
:100008007E1480317A0803190A280C2801300D283B
:100018000030FA000930F1001E30F000E430890B9E
:100028001328F00B1328F10B132800328B107E10C5
:1000380009001E28F801F901FA012000AC01AD0100
:10004800AE01AF01B001B101B201B3017E102000D1
:100058002D2881315D2180318131782180318131B4
:100068006F2180318131432180317A03031D3D287E
:100078003E28412824008C15392824008C11003092
:100088008131212180317308F9007208F8000130AC
:1000980081312121803173082000B3007208B20039
:1000A8003208A0003308A100A201A3017808A40027
:1000B8007908A500A601A7018031A320803120007E
:1000C8002308AF002208AE002108AD002008AC00CC
:1000D8002C08A8002D08A9002E08AA002F08AB009C
:1000E8000A30AB36AA0CA90CA80C890B75282B086A
:1000F800AF002A08AE002908AD002808AC002C087B
:100108007802B0002D08793BB1002D08F3002C08C7
:10011800F2008031FC20803120003108F3003008E3
:10012800F2008031D720803106302000A80030301E
:10013800890B9C28A80B9C28000039281D28003012
:10014800F5000030F4000030F3000030F200200029
:10015800201CAF28B028B8282408F2072508F33D4A
:100168002608F43D2708F53D0130A435A50DA60D58
:10017800A70D890BB9280130A336A20CA10CA00C3D
:10018800890BC0282308220421042004031DCD283C
:10019800CE28AB287508A3007408A2007308A10034
:1001A8007208A0000800003073020A3003197202B6
:1001B8000318DF28E028E5283B00AB1322000C12C7
:1001C800F52803307302F63003197202031CED2878
:1001D800EE28F3283B00AB1322000C16F5283B0051
:1001E800AB1773083B00A4007208A300AF17080000
:1001F800003073020A300319720203180429052912
:100208000A293B009B1322008C121A29033073021F
:10021800F63003197202031C1229132918293B000E
:100228009B1322008C161A293B009B1773083B006E
:100238009400720893009F170800F7007708F400ED
:10024800F40DF40D21001D087406833974069D0011
:100258000B30F4006230890B2F29F40B2F29003260
:1002680021009D149D1839293A2936291C08F600C1
:100278001B08F5007608F3007508F2000800C03086
:100288003B009B00C030AB0030309E003030AE00E9
:1002980003309600FE3095000330A600FE30A5001E
:1002A80091019201A101A20193019401A301A4016A
:1002B8000800F0302100990007308C00033023003B
:1002C8008C00033022009D007F302100950008300B
:1002D80024008C000800E33021009E0001309D00BE
:0E02E8008330220097000800D0308B00080001
:020000040001F9
:08000000FF3FFF3FFF3FFF3F00
:04000E008439FF1F13
:00000001FF
